:020000040000FA
:060000000A128A110C280F
:10000800FE00030EF0000A08F1000A128A15282FD4
:100018000A128A110F280A128A11FE270A128A1157
:10002800BF000A128A11FD270A128A11FB00B601C5
:10003800B701B801B901BA01BB01BC01BD01BE01DC
:10004800F901FA0183010A128A11EF2A83120313B4
:10005800AE002A0A031D312832283728FF30AE00A7
:10006800B601B701B8015030F6008030F7000A1227
:100078008A156E260A128A11D130F600C130F700AF
:100088000A128A156E260A128A110130F600D0303B
:10009800F7000A128A156E260A128A11C8308312CE
:1000A8000313A80020300A128A153B260A128A1167
:1000B800C93083120313A80020300A128A153B2680
:1000C8000A128A11CA3083120313A80020300A12B8
:1000D8008A153B260A128A11323083120313AD00A7
:1000E8000130AD022D0A031D7A287B287428C830F8
:1000F800A8006430F2000030F3003708F500360835
:10010800F4000A128A1565270A128A117208303E0D
:100118000A128A153B260A128A11C9308312031360
:10012800A8000A30A0000030A1000A30F200003018
:10013800F3003708F5003608F4000A128A15652717
:100148000A128A11730883120313A3007208A2000B
:100158000A128A15EE260A128A118312031320083E
:10016800303E0A128A153B260A128A11CA308312B7
:100178000313A8000A30A0000030A1003708A3002C
:100188003608A2000A128A15EE260A128A1183126C
:1001980003132008303E0A128A153B260A128A11D8
:1001A8002A30831203132E060319DB28DC280729BB
:1001B80023302E060319E128E22807292E0A0319FD
:1001C800E628E7280729033038020318EC28ED2829
:1001D800B6293708F3003608F2000A30F400003078
:1001E800F5000A128A11D8270A128A1183120313FA
:1001F8002E087207B6000030031801307307B700E5
:100208000130B807B6292A302E06031D0C290D29FE
:100218001129B601B701B801B62923302E06031DEE
:1002280016291729B62900303702B53003193602C6
:10023800031C1F2920292429B430B6000030B70038
:100248000A128A1503260A128A118330F6008230B0
:10025800F7000A128A156E260A128A118F30F600E4
:100268009030F7000A128A156E260A128A11DF30BA
:10027800F6009D30F7000A128A156E260A128A11B6
:100288003C3083120313BB001215AC299A30A80026
:100298006430F2000030F3003B08AB00AC012B08DF
:1002A800F4002C08F5000A128A1173270A128A1121
:1002B8007208303E0A128A153B260A128A119B30B0
:1002C80083120313A8000A30A4000030A5000A30E6
:1002D800F2000030F3003B08AB00AC012B08F4003F
:1002E8002C08F5000A128A1173270A128A1173085A
:1002F80083120313A7007208A6000A128A15A727FB
:100308000A128A11831203132408303E0A128A152E
:100318003B260A128A119C3083120313A8000A3064
:10032800A4000030A5003B08AB00AC012B08A600D8
:100338002C08A7000A128A15A7270A128A11831205
:1003480003132408303E0A128A153B260A128A1122
:10035800831203133B08031DB229B3294A2912113A
:100368001130BF00080083120313AE002A0A031DD0
:10037800BE29BF29C529BA01B901FF30AE00BD01A8
:10038800BE011230F6008030F7000A128A156E2678
:100398000A128A11CA30F600C030F7000A128A150C
:1003A8006E260A128A110130F600D030F7000A12C0
:1003B8008A156E260A128A112A30831203132E0612
:1003C8000319E729E8291E2A23302E060319ED29E7
:1003D800EE291E2A2E0A0319F229F3291E2A0130B2
:1003E800B907033039020318FA29FB29092A0A3008
:1003F800F2003E080A128A1514260A128A1183127C
:1004080003132E07BE00BA013F2A0530390203182C
:100418000E2A0F2A3F2A0A30F2003D080A128A15CE
:1004280014260A128A11831203132E07BD00013005
:10043800BA003F2A2A302E06031D232A242A302AEE
:100448003A080319282A292A2D2ABD010230B900A1
:100458003F2ABE01B9013F2A23302E06031D352A43
:10046800362A3F2A07151215DD30BF000A128A15F1
:1004780003260A128A11831203133A08031D452A18
:10048800462A592AC930A80020300A128A153B2664
:100498000A128A11CA3083120313A80020300A12E4
:1004A8008A153B260A128A116B2AC630A80020300A
:1004B8000A128A153B260A128A11C73083120313BF
:1004C800A80020300A128A153B260A128A113230F7
:1004D80083120313AD000130AD022D0A031D752AE6
:1004E800762A6F2AC930A8000A30F2000030F300DB
:1004F8003E08AB00AC012B08F4002C08F5000A12EA
:100508008A1173270A128A117208303E0A128A1554
:100518003B260A128A11CA3083120313A8000A3034
:10052800A4000030A5003E08AB00AC012B08A600D3
:100538002C08A7000A128A15A7270A128A11831203
:1005480003132408303E0A128A153B260A128A1120
:10055800C83083120313A8003A300A128A153B26C2
:100568000A128A11C63083120313A8000A30F20057
:100578000030F3003D08AB00AC012B08F4002C0858
:10058800F5000A128A1173270A128A117208303E7E
:100598000A128A153B260A128A11C73083120313DE
:1005A800A8000A30A4000030A5003D08AB00AC014B
:1005B8002B08A6002C08A7000A128A15A7270A12DA
:1005C8008A11831203132408303E0A128A153B2627
:1005D8000A128A11080083120313B4010A128A1539
:1005E80050260A128A1101300A128A11DD240A12D1
:1005F8008A1183120313B50002303F06031D052B31
:10060800062B6A2B3503031D0A2B0B2B362B0A12DC
:100618008A1503260A128A1183120313B4011130B2
:10062800BF006A30F600C030F7000A128A156E263D
:100638000A128A11333083120313B300BB30B2009D
:10064800DF30B100B10B262BB20B262BB30B262BB8
:100658000A128A1503260A128A11FF30831203131D
:10066800BC006A2B02303506031D3B2B3C2B472B65
:100678000A128A1503260A128A1183120313B40177
:100688001230BF00312B03303506031D4C2B4D2B88
:10069800582B0A128A1503260A128A118312031389
:1006A800B4011330BF00312B04303506031D5D2B18
:1006B8005E2B6A2B0A128A1503260A128A11143035
:1006C80083120313BF000130B400312BDD303F0625
:1006D800031D6F2B702B9C2B04303506031D752BC7
:1006E800762B8A2B340803197A2B7B2BF92B3E089F
:1006F8001E3EBE003C303E02031C832B842BAD2BD8
:100708000130BD073E08C43EBE00F92B0530350652
:10071800031D8F2B902B932BCC30BF00F92B063069
:100728003506031D982B992BAD2BBB30BF00F92B39
:10073800CC303F06031DA12BA22BF92B0430350624
:10074800031DA72BA82BAD2B07151215DD30BF00F5
:10075800F92BF92B0A128A1180240A128A11023005
:1007680083120313BF000A128A1503260A128A117C
:10077800162C0A128A1593260A128A11162C3C087E
:10078800AA0035080A128A11B7210A128A11162CF2
:100798000A128A11EA250A128A11162C0711121157
:1007A800162C071112110A128A1503260A128A1129
:1007B800023083120313BF00162C3C08AA00350828
:1007C8000A128A11B7210A128A11162C3C08AA00AB
:1007D80035080A128A112A200A128A11162C0A12BE
:1007E8008A15DC250A128A11162C3F08013A0319CA
:1007F800AE2B033A0319BD2B133A0319C32B033A43
:100808000319E12B013A0319EA2B073A0319F32BD1
:10081800AF3A0319D52B773A0319D22B113A03199A
:10082800CC2B162C83120313BC01F72A0A128A1147
:100838000C28C330F700CD30F600F60B212CF70B4F
:10084800212CF20133300A128A15B8260A128A11AD
:100858001B30F7009E30F600F60B302CF70B302CCF
:100868000000F20133300A128A15B8260A128A11DA
:10087800A630F600F60B3E2C0000F20133300A12C7
:100888008A15B8260A128A11492C4A2C0000F2014E
:1008980002300A128A15B8260A128A11A630F60002
:1008A800F60B542C0000F20128300A128A15B826DB
:1008B8000A128A11A630F600F60B602C0000F2012D
:1008C80001300A128A15B8260A128A110430F70074
:1008D8003D30F600F60B6E2CF70B6E2C732CF201E4
:1008E8000C300A128A15B8260A128A11A630F600A8
:1008F800F60B7C2C0000080083120313AD01AE0137
:100908002D08803EA800FF300A128A153B260A12DD
:100918008A11013083120313AD070318AE0A0030A1
:10092800AE0700302E02103003192D02031C9D2C37
:100938009E2C842C7730F600C230F7000A128A15F4
:100948006E260A128A114130F6009130F7000A1219
:100958008A156E260A128A1183120313AF01B00199
:100968002F08D03EA800FF300A128A153B260A122B
:100978008A11013083120313AF070318B00A00303D
:10098800B00700303002103003192F02031CCD2CA1
:10099800CE2CB42C7F3083120313AC00D430AB00C0
:1009A8003130AA00AA0BD62CAB0BD62CAC0BD62C0C
:1009B8000800F4000A128A11C7260A128A11F500E3
:1009C8007408031DE82CE92CEB2C7508FF2C750A1C
:1009D8000319EF2CF02CF72C7B080319F42CF52CB9
:1009E800F72CFB01E92C750A031DFB2CFC2CFE2CB3
:1009F8000130FB00FF30080005308A000408840A33
:100A0800820700342A343A3443344C344534413470
:100A180052342034203423343A3445344E34543458
:100A28004534523400345334453454342034543427
:100A380049344D34453428344D344D343A345334E4
:100A480053342934003445344E344A344F345934FD
:100A5800203459344F345534523420344D344534CD
:100A680041344C34003434342E3453345434413407
:100A7800523454342F3452344534533455344D346D
:100A8800453400344D344934433452344F345734A8
:100A980041345634453420344F34563445344E347A
:100AA80000345334453454342034543445344D34AC
:100AB800503428342A3443342934003433342E341F
:100AC80043344F344E345634453443345434493423
:100AD8004F344E34003450346F34773465347234C4
:100AE80020343D34203439343034303457340034F1
:100AF80050344F3457344534523449344E344734E3
:100B080020344F344E3400345034723465342D342C
:100B1800483465346134743469346E34673400346D
:100B2800543469346D3465342034523465346D344A
:100B380020343A340034543449344D344534203464
:100B48003A342034003435342E345034413455345A
:100B580053344534003432342E3447345234493413
:100B68004C344C34003431342E344D34493443340D
:100B780052344F340034543449344D3445342034DD
:100B880055345034003434342E34533454344134CE
:100B9800523454340034543449344D3445342034B8
:100BA8003A340034543445344D34503420343A34D3
:100BB800003436342E34533454344F3450340034E3
:100BC80053346534633420343A3400349A30F600B0
:100BD8008130F7000A128A156E260A128A118C30A3
:100BE80083120313A8000A30F2000030F3003E0815
:100BF800AA00AB012A08F4002B08F5000A128A1192
:100C080073270A128A117208303E0A128A153B2687
:100C18000A128A118D3083120313A8000A30A40027
:100C28000030A5003E08AA00AB012A08A6002B0840
:100C3800A7000A128A15A7270A128A11831203131A
:100C48002408303E0A128A153B260A128A118B3074
:100C580083120313A8003A300A128A153B260A1297
:100C68008A11893083120313A8000A30F200003079
:100C7800F3003D08AA00AB012A08F4002B08F50090
:100C88000A128A1173270A128A117208303E0A1250
:100C98008A153B260A128A118A3083120313A80088
:100CA8000A30A4000030A5003D08AA00AB012A08BC
:100CB800A6002B08A7000A128A15A7270A128A116C
:100CC800831203132408303E0A128A153B260A129F
:100CD8008A113230F600C130F7000A128A156E26E2
:100CE8000A128A11A230F6009130F7000A128A150A
:100CF8006E260A128A11D830F600D130F7000A128F
:100D08008A156E260A128A11831203133D08031DE1
:100D18008E2E8F2EC62E3E08031D932E942EC62E81
:100D28000A128A1503260A128A1183120313121152
:100D38000711BA30F600C430F7000A128A156E2679
:100D48000A128A112230F6009030F7000A128A152A
:100D58006E260A128A118312031387141A3083121B
:100D68000313AC005E30AB006D30AA00AA0BBA2E9C
:100D7800AB0BBA2EAC0BBA2EC12E831203138710FD
:100D88000230BF0008008312031388110815881465
:100D980008146430F2000030F300FF30F207031843
:100DA800F30AFF30F307720A031DDE2E730A031DD0
:100DB800DE2EDF2ED12E831203130618E42EE52E25
:100DC800E72E0130722F8618EA2EEB2EED2E023018
:100DD800722F0619F02EF12EF32E0330722F88157C
:100DE8000811881408146430F2000030F300FF3052
:100DF800F2070318F30AFF30F307720A031D082FDE
:100E0800730A031D082F092FFB2E831203130618DC
:100E18000E2F0F2F112F0430722F8618142F152F15
:100E2800172F0530722F06191A2F1B2F1D2F06306A
:100E3800722F88150815881008146430F2000030E5
:100E4800F300FF30F2070318F30AFF30F307720AC2
:100E5800031D322F730A031D322F332F252F8312C0
:100E680003130618382F392F3B2F0730722F861897
:100E78003E2F3F2F412F0830722F0619442F452F40
:100E8800472F0930722F8815081588140810643008
:100E9800F2000030F300FF30F2070318F30AFF30C6
:100EA800F307720A031D5C2F730A031D5C2F5D2F65
:100EB8004F2F831203130618622F632F652F2A30D2
:100EC800722F8618682F692F6B2F0030722F061922
:100ED8006E2F6F2F712F2330722FFF30080083126F
:100EE8000313A101F31F792F7A2F812FF209F30938
:100EF800F20A0319F30A0130A100F51F842F852F88
:100F08008C2FF409F509F40A0319F50A0130A10632
:100F1800A201A301720873040319932F942FC92FF8
:100F28000130A000A02F01300310F20DF30DFF3E99
:100F3800031D982F0130A007F31FA32FA42F972F6D
:100F480001300310A20DA30DFF3E031DA52F73084A
:100F58007502031DB12F72087402031CB42FB52F3C
:100F6800BC2F7208F4027308031CF503F50222145F
:100F780001300310F30CF20CFF3E031DBD2F0130AE
:100F8800A002031DC82FC92FA42F21080319CD2F94
:100F9800CE2FD32FA209A309A20A0319A30A230853
:100FA800F3002208F2000800F601F701721CDD2F99
:100FB800DE2FE42F7408F6070318F70A7508F707F9
:100FC80001300310F40DF50DFF3E031DE52F013030
:100FD8000310F30CF20CFF3E031DEC2F7208730490
:100FE800031DF72FF82FDA2F7708F3007608F200A1
:060FF80008000134013481
:101BB8001E3083120313BE00BD0107151215DD3058
:101BC800BF0008008316031308080F39880009119D
:101BD80089100A128A111D240A128A150800831610
:101BE80003130608073886000808F03988008113AF
:101BF8008312031388150815881408140800F201C5
:101C080001300A128A15B8260A128A150430F7001C
:101C18003D30F600F60B0E2EF70B0E2E132E080095
:101C2800F400F301741C192E1A2E1C2E7208F307E7
:101C38000310F20D0310F40C7408031D242E252E36
:101C4800162E73080800831203131213921212122D
:101C58009211121192101210831603138C1483120E
:101C680003138C10FA3083160313920008008312B2
:101C78000313A900F20128080A128A15B8260A12C5
:101C88008A15F201F20A8312031329080A128A1527
:101C9800B8260A128A1508000A128A15E6250A12B9
:101CA8008A150A128A15F3250A128A158316031350
:101CB80007118312031307110A128A1527260A121D
:101CC8008A150B178B1783160313871083120313B8
:101CD80087100800F20177080A128A15B8260A1236
:101CE8008A15862EF201F20A760884000A128A11F1
:101CF80000250A128A150A128A15B8260A128A15A8
:101D08000130F607760884000A128A1100250A12A3
:101D18008A15003A031D912E922E762E0800B230B5
:101D2800F6008030F7000A128A156E260A128A1504
:101D3800AA30F600C030F7000A128A156E260A1279
:101D48008A155D30F6009030F7000A128A156E2663
:101D58000A128A15C230F600D030F7000A128A1526
:101D68006E260A128A150800F5007218BC2EC02EBD
:101D7800831203130915C32E83120313091175085F
:101D8800F03988008914A630F300F30BC92E00003F
:101D980083120313891075080F39F30003300310F9
:101DA800F30DFF3E031DD32E0310730D8800891415
:101DB800A630F300F30BDE2E000083120313891004
:101DC8001B30F4009E30F300F30BE82EF40BE82EE2
:101DD8000000080083120313200821040319F52EBC
:101DE800F62E232F0130A400022F01300310A00D7E
:101DF800A10DFF3E031DFA2E0130A407A11F052FD8
:101E0800062FF92E21082302031D0C2F2008220279
:101E1800031C0F2F102F162F2008A2022108031CC5
:101E2800A303A30201300310A10CA00CFF3E031D65
:101E3800172F0130A402031D222F232F062F23085A
:101E4800A1002208A0000800831203138C1C2D2F68
:101E58002E2F5E2F0130F9070318FA0A0030FA070F
:101E6800203079064E3003197A06031D3C2F3D2F8A
:101E78005D2FF901FA013E080319432F442F472F1C
:101E88000130BE025D2F3B0803194B2F4C2F4F2FFB
:101E98000130BB025D2F3E08031D532F542F5D2FC9
:101EA8003D080319582F592F5D2FBD013C30BE0046
:101EB8005D2F8C1071088A00700E8300FE0E7E0E56
:101EC8000900F601F7017208730403196C2F6D2FCE
:101ED800A22F0130F800792F01300310F20DF30D15
:101EE800FF3E031D712F0130F807F31F7C2F7D2F54
:101EF800702F01300310F60DF70DFF3E031D7E2FE6
:101F080073087502031D8A2F72087402031C8D2F33
:101F18008E2F952F7208F4027308031CF503F5023F
:101F2800761401300310F30CF20CFF3E031D962FBC
:101F38000130F802031DA12FA22F7D2F7708F3008F
:101F48007608F2000800F70183120313A71FAD2FCC
:101F5800AE2FB52FA609A709A60A0319A70A0130AB
:101F6800F700A51FB82FB92FBE2FA409A509A40AE9
:101F78000319A50A240825040319C32FC42FF12F18
:101F88000130F600D02F01300310A40DA50DFF3E3F
:101F9800031DC82F0130F607A51FD32FD42FC72F35
:101FA80025082702031DDA2F24082602031CDD2F2B
:101FB800DE2FE42F2408A6022508031CA703A70286
:101FC80001300310A50CA40CFF3E031DE52F0130C2
:101FD800F602031DF02FF12FD42F77080319F52FE0
:101FE800F62FFB2FA609A709A60A0319A70A27088F
:081FF800A5002608A400080062
:02400E00FB3F76
:00000001FF
